S019000067705F636F6D626F5F6D6732315F763637302E7333378D
S31500004000601C002089CF0200558000005980000006
S31500004010A70A0A010042000004180FAC00679500C9
S31500004020000000000000000000000000000000008A
S3150000403000000000205804000000000000000000FE
S315000040400000000000000000FFFFFFFFFFFFFFFF72
S31500004050FFFFFFFF00A0070001000000002008008E
S31500004060FFFFFFFFFFFFFFFF8000000000000000D2
S31500004070000000000000000000000000000000003A
S315000040800000000000000000B05E0020B05E0020CE
S31500004090601C002040DC0400A81E04000013002061
S311000040A0D41200200020080000000000E0
S31500004200601C002089CF0200558000005980000004
S31500004210453901005D8000006580000085CF020001
S3150000422085CF020085CF020085CF020085CF020030
S315000042306980000085CF020085CF020085CF02008D
S31500004240DC800000DC800000DC800000DC800000F8
S31500004250DC8000001D9C00004DA90000DC800000F1
S31500004260DC800000DC8000002D9A00007D9F0100AC
S31500004270DC800000DC800000DC800000DC800000C8
S31500004280DC800000DC800000DC80000085CF0200BE
S31500004290DC80000095930000DC800000DC800000DC
S315000042A0DC800000959400006D940000DC80000026
S315000042B0DC800000DC800000DC80000075900200DD
S315000042C001900200FD8F0200A1870200719002009A
S315000042D00590020025900200099002004D78020028
S315000042E0B9900200DC800000DC800000D183000071
S315000042F0DC800000DC800000DC80000085CF02004E
S31500004300DC800000DC800000DC800000DC80000037
S31500004310DC800000DC800000DC800000DC80000027
S31500004320DC800000DC800000DC800000DC80000017
S30900004330DC80000027
S31500004334F8B500BFF8BC08BC9E467047F8B500BF88
S31500004344F8BC08BC9E46704710B5054C237833B9B3
S31500004354044B13B1044800E000BF0123237010BDD1
S315000043642C260020000000006CD2040008B5034B84
S315000043741BB10349034800E000BF08BD000000006C
S31500004384302600206CD20400154B002B08BF134BBB
S315000043949D46A3F5803A00218B460F461348144ADE
S315000043A4121A3DF06DFD0F4B002B00D098470E4BB3
S315000043B4002B00D098470020002104000D000D4872
S315000043C4002802D00C4800E000BF3DF01BFD200091
S315000043D4290015F0FBFF3DF001FD00BF00000800B9
S315000043E4601C002000000000000000002C260020B5
S315000043F4B05E00200000000000000000002307B5A6
S31500004404CDE90033012369464FF0FF308DF80230C1
S315000044141FF0B4FE003018BF012003B05DF804FBA2
S3150000442401207047012070470120704710B5084CE1
S3150000443423681B68587918F0F4F823681B685879C0
S3150000444401F061FA00201BF051F9012010BD00BFF4
S31500004454785B002038B5C37B05460BB1832038BD95
S31500004464C47C2CB9FFF7E2FF20B9EB7B002BF5D116
S315000044748120F4E72046F2E738B5C37B05460BB145
S31500004484832038BDC47C6CB9017D82898B1C9A4219
S315000044940AD3806819F0F6F908F06CF830B9EB7BAA
S315000044A4002BEDD18120ECE78020EAE72046E8E7FF
S315000044B4C37B10B504460BB1832010BDC37C012B0E
S315000044C413D003D3402B13D08120F6E7017D8289D4
S315000044D48B1C9A4218D3806819F0D4F90FF0AAFA03
S315000044E4A0B9E37B002BE7D1EEE70FF0BBFAF7E7C1
S315000044F4037D81899A1C914206D38268591C515CBA
S31500004504D05C1DF001F8EBE78020D6E70020D4E765
S31500004514F8B5C37B04460BB18320F8BDC37C052BD9
S3150000452429D8DFE803F0032A35414C4F057D8289FB
S31500004534AB1C9A4201D28020EFE7ADB229468068CF
S3150000454419F0A0F90646A06802352844A78919F08F
S31500004554B1F9284401308742EDD32946A289A068DF
S3150000456419F096F9014630460EF03CFF002848D172
S31500004574E37B002BD0D18120CFE7017D82898B1C80
S315000045849A42D8D3806819F07DF90EF04BFFEDE717
S31500004594037D81895A1C9142CDD38268591C1144EA
S315000045A4D05C0EF06FFFE1E7017D82898B1C9A4295
S315000045B4C1D3806819F066F90EF0E6FFD6E70FF06E
S315000045C43FF8D3E7057D8289AB1C9A42B3D3ADB2DB
S315000045D42946806819F056F90646A068023528442B
S315000045E4A78919F067F9284401308742A3D32946DD
S315000045F4A289A06819F04CF9014630460FF068F814
S31500004604B4E7002089E7C37B2DE9F7430446002B72
S3150000461440F03E81C37C042B00F0B7800BD8012BFD
S3150000462400F088803FD3022B00F09480032B00F027
S31500004634A18081203DE0402B00F0DA800FD8052BC5
S3150000464400F0B380062BF4D1017D82898B1C9A423B
S315000046542ED3806819F016F914F0EAFC61E0412BB8
S3150000466400F00581422BE4D1037D8289D91D8A425B
S315000046741ED39DB28068691CC65C19F003F907460F
S31500004684A068EB1CA289291D10F8038019F0FAF81A
S31500004694A36806355B5D42460093394603463046B9
S315000046A41DF00AFA3DE0057D8289AB1C9A4203D2CD
S315000046B4802003B0BDE8F083ADB22946806819F0C6
S315000046C4E1F8A289E91C8A42064605F10203EFD302
S315000046D4881C8242ECD3A0680535C75C19F0D2F871
S315000046E48046A068B4F80C90284419F0E3F82844EE
S315000046F401308145DCD32946A289A06819F0C8F89F
S315000047048146A068284419F0D5F801300544A0680C
S315000047144B4610FA85F5009542463946304615F063
S315000047249FF8002840F0B680E37B002B14BF83205B
S315000047348120BEE7057D8289EB1C9A42B8D3ADB2CF
S315000047442946806819F09EF8A3680235595D15F06C
S315000047546DF9E6E7057D8289EB1C9A42A8D3ADB2D2
S315000047642946806819F08EF8A3680235595D14F05D
S3150000477489FBD6E7017D82898B1C9A4298D380688F
S3150000478419F080F814F0ECFBCBE7057D8289EB1C6D
S315000047949A428DD3ADB22946806819F073F8A3689E
S315000047A40235595D14F090FDBBE7057D8289AB1C8B
S315000047B49A42FFF47DAFADB22946806819F062F8DB
S315000047C4A289E91C8A42064605F10203FFF470AF8A
S315000047D4A068C75C8B1C9A4207D319F053F80246AB
S315000047E43946304614F048FE9BE74FF6FF72F7E76A
S315000047F4057D8289AB1C9A42FFF45AAFADB22946B5
S31500004804806819F03FF8A289E91C8A42064605F138
S315000048140203FFF44DAF881C8242FFF449AFA0683F
S315000048240535C75C19F02EF88046A068B4F80C90DC
S31500004834284419F03FF8284401308145FFF438AF85
S31500004844A2892946A06819F023F88146A06828445D
S3150000485419F030F801300544A0684B4610FA85F586
S3150000486400954246394630461DF00EF959E7057D56
S315000048748289EB1C9A42FFF41BAFADB229468068CD
S3150000488419F000F8A3680235595D1DF00DF948E7E3
S3150000489483200EE700200CE7F8B5C37B04460BB172
S315000048A48320F8BDC37C022B21D004D8ABB1012BE5
S315000048B41AD08120F5E7412B1CD0422B1DD0402B6A
S315000048C4F7D1037D81899A1C91422DD38268591CA4
S315000048D4515CD05C1CF052FF01E011F0FBFB28BBDD
S315000048E4E37B002BE5D0DBE711F00AFCF7E711F0D8
S315000048F41DFCF4E71CF088FFF1E7037D8289591D4E
S315000049048A4211D39DB28068691CC65C18F0BAFF4E
S31500004914A2890746E91CA06818F0B4FF3946024686
S3150000492430461CF0B1FFDAE78020BAE70020B8E78A
S31500004934C37BF7B50446002B40F0D280C37C072B1B
S3150000494400F2D080DFE813F0080038005900860032
S315000049549B00AA00B600C900037D8289591C8A42BD
S31500004964C0F0C2809DB2691C881C8242C0F0BC8023
S31500004974A068C75C18F086FFEB1CA6895A1C9642F1
S3150000498428BFA268014624BFD25C2B1D03F1010097
S3150000499438BFFF2286422ABFA068FF23C35C38467D
S315000049A40FF080FD002840F0A180E37B002B14BFAC
S315000049B48320812003B0F0BD067D8589731C9D424A
S315000049C4C0F09280B7B2BA1C954207F10103C0F059
S315000049D48B808068C15C13460132954224BFC25C59
S315000049E4FB1C03F1010738BFFF22BD422CBFC35C89
S315000049F4FF23805D0FF06AFDD4E7037D8289591C8D
S31500004A048A4271D39DB2A91C8A4205F101076BD370
S31500004A14881C824268D3A068C65CC75D18F032FF62
S31500004A24291DB4F80CC04B1C9C4528BFA36802463C
S31500004A3424BF5B5C691D01F1010038BFFF23844577
S31500004A4432BFFF21A068415C3046009139460FF021
S31500004A544DFDA7E7027D8189501C814293B222BF96
S31500004A64A0680133805C03F1010238BFFF20914244
S31500004A742ABFA268FF21D15C0FF04AFD92E7017DAF
S31500004A848289CB1C9A422FD38068455C013118F089
S31500004A94F9FE014628460FF00FFD83E7037D818961
S31500004AA49A1C914220D38268591C515CD05C0FF049
S31500004AB415FD77E7037D8289191D8A4214D3806820
S31500004AC499B2C55C4B1C0231C65C18F0DBFE31465C
S31500004AD4024628460FF013FD64E70FF01EFD61E75A
S31500004AE4832067E7812065E7802063E7002061E78C
S31500004AF42DE9F04FC37B8FB004461BB183200FB062
S31500004B04BDE8F08FC37C0B2B4DD8DFE813F00C0007
S31500004B14550030014C004C004C0057014C004C0031
S31500004B244C00C401D801037D8289581C824234BFDB
S31500004B344FF0FF08A06899B224BF10F80380013132
S31500004B4418F0070509D10F1DBA422FD3A06818F033
S31500004B5493FE0646B9B2FF2711E0022D25D101F1D5
S31500004B6408039A42C0F0DF81A5680D4499B24B1C34
S31500004B749A421BD34FF0FF36A268575C99B2A289BA
S31500004B840B1D9A4215D3A06818F076FE00903B469A
S31500004B942A463146404607F0CFFF002840F0C1813F
S31500004BA4E37B002BAAD18120A9E700254FF0FF362D
S31500004BB4D1E74FF0FF30E9E7037D82899DB20333E5
S31500004BC49A4218D32946806818F059FE06460335DA
S31500004BD416F0070712D1A28905F104084245C0F070
S31500004BE4AD802946A06818F047FE83461FFA88F56B
S31500004BF44FF0FF0A18E04FF0FF36E9E7022F40F0C6
S31500004C049C80A28905F108039A42C0F08E81A768A8
S31500004C142F449DB26B1C9A42C0F090804FF0FF3B2C
S31500004C24A26812F805A09DB216F0100340F0898020
S31500004C3416F0600903D0B9F1600F40F07B81A289B8
S31500004C4405F108039A42C0F07281A16829440991CA
S31500004C549DB2B9F1000F03D0B9F1600F40F06B813A
S31500004C64AB1C9A42C0F06C812946A0680A9318F0DE
S31500004C7409FE80460A9B9DB2B9F1200F02D0B9F114
S31500004C84400F62D1A289AB1C9A420A935DD329468E
S31500004C94A06818F0F7FD81460A9B9DB206F018033A
S31500004CA4082B55D1A2896B1C9A4251D3A268525D36
S31500004CB49DB20A9271044ED5A2892B1D9A424AD3FB
S31500004CC42946A0680C9318F0D7FD0C9B0B909DB257
S31500004CD416F4004344D0A28905F110039A423ED348
S31500004CE4A2682A440C929DB2F2033BD5A289AB1C5E
S31500004CF49A4237D32946A0680D9318F0C3FD0D9B3D
S31500004D049DB2B30331D5A2896B1C9A422DD3A368F5
S31500004D145B5DCDE906030C9BCDF8048005930B9BE4
S31500004D243A4604930A9B5946CDE90293099B3046B9
S31500004D340093534607F002FF2FE700274FF0FF3B8F
S31500004D4456E700234FF6FF7809934FF6FF79A5E758
S31500004D54FF230A93AEE74FF0FF330B93B8E7002324
S31500004D640C93C1E74FF6FF70CBE7FF23D1E7017D34
S31500004D748289481C824234BFFF25A0688BB224BFB7
S31500004D84455C0133A90714D59E1CB24211D31946BA
S31500004D94A06818F077FD0146B3B2EA060CD5A089DF
S31500004DA45A1C904208D3A268D25C284607F080FEBB
S31500004DB4F3E64FF6FF71F0E7FF22F6E7037D8289FB
S31500004DC4591C8A429DB228BF0135806805F1020646
S31500004DD42CBF10F803804FF0FF08B24234D32946A3
S31500004DE418F050FD8146B5B2A2896B1CA0689A42A0
S31500004DF42ABF10F805A04FF0FF0A9DB218F0070667
S31500004E0425D105F1040B5A4531D3294618F034FD52
S31500004E1407461FFA8BF54FF0FF0BA289691C8A42DD
S31500004E2438BFFF23A06832BF0993435D8DB228447F
S31500004E3428BF09930A9218F03DFD0A9A28440130C6
S31500004E44824217D280205AE64FF6FF79CCE7022E2B
S31500004E540CD105F108039A4270D346199DB210F895
S31500004E6405B00135ADB24FF0FF37D6E700264FF057
S31500004E74FF37D0E7A2892946A06818F009FD099BE7
S31500004E840390CDE901B300963B4652464946404657
S31500004E9407F002FF81E6007DA289031D9A42D1D361
S31500004EA4A56886B2F31CB21C711C0436EB5CAA5CC2
S31500004EB4695C285C3544009507F0E6FF6DE6037DE2
S31500004EC48289591C8A42BDD380689FB2C65C791C0C
S31500004ED416F01F0504D118F0CFFC791D002206E058
S31500004EE4022D1BD142184FF0FF3007F1090106F0DD
S31500004EF40703022B01BFA3684D1C5B5CA9B206F035
S31500004F04180518BFFF23082D12BFFF25A5686D5C81
S31500004F1401460095304608F0A5F83EE64FF0FF300E
S31500004F24DCE70020EBE5002521E6002772E60023F6
S31500004F3409938EE609934FF6FF789DE600268EE7E1
S31500004F44B9F1200F4FF6FF787FF499AEFDE62DE90F
S31500004F54F04FC37BADB082461BB183202DB0BDE8B4
S31500004F64F08FC37C0B2B00F2A480DFE813F00C0057
S31500004F74B200A200A200EA009D01A200BB01FA0150
S31500004F8405029003BE03037D82899CB202339A42D2
S31500004F9417D32146806818F075FC0646023416F0CD
S31500004FA40705BAF80C200FD1271DBA42C0F0848039
S31500004FB42146DAF8080018F05FFC8046BCB2FF27E9
S31500004FC416E04FF6FF76EAE7022D74D104F10803E2
S31500004FD49A42C0F0A483DAF8085025449CB2631CB4
S31500004FE49A4269D34FF0FF38DAF80820175D9CB26D
S31500004FF4BAF80C2004F1040B5A4560D32146DAF8BA
S31500005004080018F039FC81461FFA8BF4BAF80CB084
S31500005014631C9B4538BFFF23DAF8080032BF1B9395
S31500005024025D9CB2204428BF1B9218F043FC204426
S315000050340130834546D32146BAF80C20DAF8080035
S3150000504418F026FC8346DAF80800204418F032FCEF
S3150000505401300444A4B216F4904F36D0BAF80C20AA
S31500005064A31C9A42C0F05D832146DAF808001C931B
S3150000507418F008FC1C9B9CB2BAF80C20631C9A42DC
S3150000508425D3DAF808301B5DCDE903031B9BCDF865
S3150000509408B0CDE900932A463B46414630460AF01D
S315000050A41FFF002840F039839AF80F30002B7FF455
S315000050B454AF812052E700254FF0FF387FE74FF0C9
S315000050C4FF39A3E74FF0000BC5E74FF6FF70FF2348
S315000050D4DAE7037D82899CB202339A4219D32146C8
S315000050E4806818F0CFFB0646023416F0070513D184
S315000050F4BAF80C20231D9A421FD32146DAF8080079
S3150000510418F0BAFB2A460146FF2330460AF010FC83
S31500005114C7E74FF6FF76E8E7022D0ED1BAF80C3052
S3150000512404F108018B42DAF80830C0F0FD821A193E
S315000051348CB21B5D4FF0FF31E7E700224FF0FF31E1
S31500005144E2E7037D82899CB202339A4217D3214651
S31500005154806818F097FB0646023416F00705BAF87D
S315000051640C200FD1271DBA42C0F08D802146DAF8F3
S31500005174080018F081FB8046BCB2FF2716E04FF604
S31500005184FF76EAE7022D7DD104F108039A42C0F0C6
S31500005194CD82DAF8085025449CB2631C9A4272D335
S315000051A44FF0FF38DAF80820175D9CB2BAF80C20E5
S315000051B404F104094A4569D32146DAF8080018F0CF
S315000051C45BFB1FFA89F41B90BAF80C90631C994593
S315000051D438BFFF23DAF8080032BF1C93025D9CB285
S315000051E4204428BF1C9218F065FB204401308145F9
S315000051F450D32146BAF80C20DAF8080018F048FB18
S315000052048346DAF80800204418F054FB01300444BD
S31500005214A4B240F608031E423FD0BAF80C20A31CE1
S315000052249A42C0F085822146DAF808001D9318F0E8
S3150000523429FB81461D9B9CB2BAF80C30621C934232
S315000052442DD3DAF808301B5D94B2B20529D5BAF825
S315000052540C20211D8A4224D32146DAF808001D9326
S3150000526418F00AFB1D9BCDE904301C9BCDE902B95D
S3150000527401931B9B2A46009341463B4630460CF05D
S31500005284A7FB0EE700254FF0FF3876E74FF0FF3314
S315000052941B9399E74FF0000BBBE74FF6FF79FF230B
S315000052A4D3E74FF0FF30DEE7037D8289991D8A42FA
S315000052B4C0F031829CB28068611CC55C18F0E2FAC9
S315000052C4BAF80C200646E11CDAF8080018F0DAFAF7
S315000052D4DAF80830053402461B5D314628460AF0E2
S315000052E441FADEE6037D82899CB202339A4217D3E1
S315000052F42146806818F0C6FA0646023416F00705F9
S31500005304DAF808000FD1BAF80C20271DBA4224D3C4
S31500005314214618F0B1FA2A460146BCB2FF2314E02E
S315000053244FF6FF76EAE7022D17D1BAF80C3004F1EE
S3150000533408018B42C0F0FF8102198CB2611C8B42BA
S315000053440CD3035D8CB24FF0FF31DAF80800044445
S31500005354009430460DF0EAFCA3E600224FF0FF313C
S31500005364DCE7037D81895A1C91422ABF8268FF20AB
S31500005374D05C0DF04BFB94E6037D8289591C8A426E
S315000053849EB231BFFF2381680136CB5C06F102046D
S315000053942CBF27932793A24218D33146806818F06E
S315000053A471FA8046A6B218F00704BAF80C2010D198
S315000053B4351D954245D83146DAF8080018F05CFAEE
S315000053C48146AEB21C94FF231B9318E04FF6FF7878
S315000053D4E9E7022C39D106F10803934200F2AD81C4
S315000053E4DAF8081031441C919EB2731C934229D8F2
S315000053F44FF0FF39DAF80820925D9EB21B92BAF894
S315000054040C20731C9A4235BFFF23DAF80810289340
S31500005414895D28BF9EB208F0180328BF2891102B77
S3150000542416D1711C8A42DAF80830C0F08981985D79
S315000054348EB21E90334429931E9B06EB8306B6B2A6
S315000054440AE01C944FF0FF39BDE700231C93F9E7EB
S31500005454FF231E930023299318F4807F6CD0B41C79
S31500005464A24269D33146DAF8080018F00BFAA6B25C
S315000054742090BAF80C20731C9A4235BFFF23DAF841
S3150000548408102A93895D24BF9EB22A9118F40074E9
S3150000549456D0731C9A4253D3DAF80810895D9EB22B
S315000054A4219118F4087F4ED0351DAA424BD33146BC
S315000054B4DAF8080018F0E0F9AEB22290BAF80C2037
S315000054C4002C44D006F11003934242D8DAF808407F
S315000054D4A11923919EB2731C93428BBFFF23DAF862
S315000054E408101D93895D9CBF9EB21D911D9B013BB7
S315000054F4DBB2FB2B8BBF0023DAF808302B939B1906
S315000055049FBF2B931D9BF618B6B218F4806300F068
S31500005514AC80DAF80800741C855DA4B2EF0740F18C
S315000055241281214618F0AEF9F41C2490A4B2A907FE
S3150000553412D44FF6FF7018E04FF6FF73209398E7E6
S31500005544FF232193ADE74FF0FF332293B6E723946D
S31500005554C1E700232393BEE72146BAF80C20DAF804
S31500005564080018F08FF90234A4B215F0040B02D126
S315000055744FF0FF0E09E0DAF8083013F804E00134BE
S31500005584A4B203EB040B7444A4B215F0080102D1CF
S31500005594FF260B4616E0DAF808100E5D013416F005
S315000055A40F03A4B200F0D380214404EB4304A4B255
S315000055B4320901D1134605E0DAF80830234404EB36
S315000055C44204A4B2EA0606D44FF0FF0CCDF87CC020
S315000055D4CDF894C00DE0DAF808703A5D1F92621CAB
S315000055E492B217F802C0A21C92B2BA5C0334259296
S315000055F4A4B215F0200747D0DAF808703A5D26926F
S31500005604621C92B20234BA5C17FA84F7CDE9172702
S31500005614269ACDE910611692259A0D90CDE914C209
S315000056241F9ACDE90EEBCDE91232249B4A46CDE909
S315000056340B532B9B41460A931D9B0993239B08936B
S31500005644229B0793219B06932A9B0593209B0493F5
S31500005654299B279803931E9B0293289B01931B9BCC
S3150000566400931C9B0CF012FE1BE5FF224FF6FF7005
S31500005674CDE9252294461F92194616469B46964620
S31500005684249015461F46C1E7FF222692BEE7037DF6
S315000056948289591C8A423ED380689EB2C55C711CBD
S315000056A415F01F0405D118F0E7F82246711DFF23F3
S315000056B409E0022C15D106F109034218C35C4FF028
S315000056C4FF3006F10A0105F01804082C12BFFF2169
S315000056D4DAF80840615C0091014628460AF07AF936
S315000056E4DFE400224FF0FF30E1E7007DBAF80C203A
S315000056F4031D9A420FD3DAF8084085B2EB1CAA1CA4
S31500005704691C0435E35CA25C615C205C2C44009457
S315000057140AF048FAC5E4802020E400201EE40025AF
S315000057245DE44FF6FF70A7E4002202E5002534E5A8
S315000057344FF6FF7980E5002200E600231C9354E629
S31500005744FF211E9176E64FF6FF732493EFE6194682
S315000057542EE7C37B10B504460BB1832010BDC37C72
S31500005764412B03D0422B0FD08120F7E7037D81899B
S315000057745A1C914212D38268D05C1CF08FFA78B915
S31500005784E37B002BE9D1EFE7037D81895A1C914223
S3150000579404D38268D05C1CF0C9FAF0E78020DDE708
S315000057A40020DBE738B5C37B0446002B437D14BFDA
S315000057B48325C325012B24D10368028A5988587985
S315000057C416F0CCFDE8B123685B88192B09D003D801
S315000057D4032B0AD0284638BD212B0DD0B3F5805FA4
S315000057E4F8D1E37B33B18325F4E72046BDE838409E
S315000057F4FEF742BE8125EDE72046BDE83840FFF7B7
S3150000580477B9637D002BE5D12368228A59885879B4
S3150000581416F09BFD0028DDD023685B88062B32D06A
S3150000582412D8032B25D006D8002BD3D12046BDE8A9
S315000058343840FEF70FBE042B20D0052BCAD12046D4
S31500005844BDE83840FEF7DFBE212B21D006D8082B51
S31500005854C0D12046BDE83840FFF76AB8B3F5407FAB
S31500005864BFD0B3F5805FB5D12046BDE83840FFF719
S3150000587470BF2046BDE83840FEF71ABE2046BDE894
S315000058843840FEF745BE2046BDE83840FFF704B869
S315000058942046BDE83840FFF75ABB704701207047E1
S315000058A40120704701207047704700207047002090
S315000058B47047002070470020704700207047002082
S315000058C470470120704701207047B52070470020BB
S315000058D47047002070470020704700207047002062
S315000058E47047704700207047002070477047704724
S315000058F470470020704700207047704700207047AB
S31500005904842070477047704770477047012070477E
S3150000591402460249012018F05FBC00BF382004008B
S315000059240120704784B004AB03E90700012004B0EA
S3150000593470477047002070477047704770470020D3
S315000059447047704700F020BE032070470020704760
S31500005954034B1B681878012808BF0220704700BF54
S31500005964FC3E0020704700207047000003460120DB
S31500005974024AC3E9032000221A7070470100FEFFA1
S31500005984704770477047002070470020704700201A
S31500005994704700207047704700207047704700200A
S315000059A47047002070470020704700207047002091
S315000059B470470020704700207047002070477047EA
S315000059C4B5207047002070470020704770470020BC
S315000059D47047704770477047B520704770477047E7
S315000059E47047002070477047704700000023FF216E
S315000059F4084A137082F8783082F8653082F8773076
S31500005A0482F8793082F87A1082F87B30024A136081
S31500005A14704700BF4826002098460020F8B50D467A
S31500005A248C680A6806462849202003F03EFA6B680B
S31500005A347BB92649202003F038FA202014F082F896
S31500005A442349202003F046FABDE8F840202014F04C
S31500005A5479B8002EF1D01F4D1F4E204F013C14F88B
S31500005A64013F23B91A49202003F034FAE5E7752BE0
S31500005A7418D0762B18D0772B18D0732B18D0722BFE
S31500005A8418D0712B18D0622B18D06E2B18D02A2B55
S31500005A9418D01349134A212B18BF1146202003F0AE
S31500005AA404FADCE72946F9E73146F7E73946F5E72C
S31500005AB40D49F3E70D49F1E70D49EFE70D49EDE728
S31500005AC40D49EBE70D49E9E7E9470400F320040033
S31500005AD45D5C0400B1200400A5200400BC20040081
S31500005AE4FD200400FA200400C8200400D22004008B
S31500005AF4DD200400E8200400F2200400F72004005E
S31500005B04F0B50026204A92F87B30184452FA80F009
S31500005B1490F865C090F8665030461C4BA5EB0C0512
S31500005B241F78EDB2F4B2A54225D90CEB0603134453
S31500005B345B7811B10CB92D2B17D0782B1FD0582BAD
S31500005B4405D108B137240AE0013C012C14D9602B95
S31500005B5417D8402BF6D83A2B34BF302400241B1B0D
S31500005B64DBB29F4203D900FB07300136DAE705238F
S31500005B74002082F87930F0BD10270020F5E70028D0
S31500005B84E2D05724EBE700BF48260020681C00201B
S31500005B94FFF72CBF034B93F8770093F87B30C01ABA
S31500005BA4C0B27047482600200021FFF7A9BF0000B5
S31500005BB410B50A4B93F87B20024453FA82F292F80A
S31500005BC4652013445C78A4F12D0359425941FFF72B
S31500005BD497FF2D2C08BF404210BD00BF4826002069
S31500005BE430B50C4A92F87B300344C043DBB2C00F95
S31500005BF439B1D51895F8664095F86550641B241A92
S31500005C040C7042FA83F393F865301844024B184437
S31500005C1430BD00BF4826002049260020F7B51546AA
S31500005C240E460DF107011C46FFF7DAFF9DF8073013
S31500005C340746AB4288BF8DF807501CB19DF8074054
S31500005C442C1BE4B222463046002100F071FC3019C8
S31500005C549DF80720394600F00FFC9DF8070003B0B5
S31500005C64F0BD38B50C4601230822FFF7D7FF04F12F
S31500005C740803621E043413F8011D12F8015FA342DF
S31500005C841D701170F7D138BD38B50546014601209F
S31500005C94FFF7C4FED5E901436CB91C46084D2368D9
S31500005CA463B12946202003F000F921460020FFF7BE
S31500005CB4B5FE0C34F3E71B786E2BEFD038BD00BF6E
S31500005CC48D5D040008B50449202003F0EEF8BDE814
S31500005CD40840202013F036BF6520040038B5FFF7CE
S31500005CE4F1FF0024054D61190C34631953F80C3C7B
S31500005CF403B938BD0020FFF791FEF4E7B035040080
S31500005D042DE9F84F1F4B204D53F820201F49202022
S31500005D1403F0CBF82B681BB9BDE8F84FFFF7DEBFDD
S31500005D241B4FFFF7CFFF0026B946DFF86CA097F8A4
S31500005D347B30F4B2013B9C4204DB2868BDE8F84F93
S31500005D44FFF7A2BF47FA86F393F8658000234C4415
S31500005D54C84494F8662094F8651003F1010B521AAE
S31500005D64DBB2D2B2934205D30A49202003F09DF850
S31500005D740136DCE743445A785146202003F095F86F
S31500005D845B46E6E76C1C0020984600206020040071
S31500005D94482600208E5D0400D84804002DE9F74FFC
S31500005DA4884C94F87730002B00F0A180864B671C52
S31500005DB41B7813F0010F1FD00025844E14E06319DD
S31500005DC493F8662093F865302020D21A44FA85F3B6
S31500005DD493F86510D2B2394413F0AFFE3146202051
S31500005DE403F063F80135EDB294F87730AB42E6D8A8
S31500005DF47749202003F059F8002694F87730DFF825
S31500005E04DCE10193734B4FF00008714645461EF8DA
S31500005E14012B91F801C007EB020AACEB020C5FFA06
S31500005E248CFC1868002852D00138D14619E02AB9EA
S31500005E34002D4AD04FF001080C33F2E719F8011B84
S31500005E44A1F1410BBBF1190F98BF2031A2F1410B0F
S31500005E5498BFC9B2BBF1190F9CBF2032D2B28A4295
S31500005E64EAD1A9EB0A01614510F8012FDFD1002A16
S31500005E74DED11D46584B01361D6094F87B30F6B2D0
S31500005E84013384F87B30D5E90123002A35D01B7809
S31500005E946E2B31D03F2B23D04FF000094FF0070B68
S31500005EA4C846042394F87710AA68B14212F8087019
S31500005EB42BD8AFB1904498F801302A2B10D0212F5B
S31500005EC41CBF032384F879300AE01D46B4E7B8F111
S31500005ED4000F01D1002DCDD10223002584F879309D
S31500005EE494F87900002869D1686817F099F903B025
S31500005EF4BDE8F04FFFF77ABD1346019AB24282D845
S31500005F0403221D4684F87920EAE7732F09D8712FF6
S31500005F140BD2212F1FD0622F3CD0002F4BD103224E
S31500005F2446E0A7F17502022A45D8752F29D0762FA7
S31500005F342AD0732F2BD0722F47F6FF7A18BF4FF053
S31500005F44FF3A012148460193FFF7DAFD5045019BCC
S31500005F5401D984F87930AA68424452782A2A94F8F6
S31500005F6479201CBF08F101085FFA88F8002AB7D126
S31500005F74212F1FBF013609F10109F6B25FFA89F92B
S31500005F8490E74FF0FF0ADCE74FF6FF7AD9E74FF0C8
S31500005F947F0AD6E794F87B204A4454FA82F292F8B0
S31500005FA4652022445278222AD5D07B2AD3D00522D2
S31500005FB484F87920CFE784F879B0CCE7FFF7A0FE20
S31500005FC495E700BF48260020C42600208E5D040005
S31500005FD4A2200400B035040098460020AD26002017
S31500005FE42DE9F34106460D464FF000085C4C5D4F23
S31500005FF466B90DF10701284613F09AFD78B12628F3
S3150000600400F0A980012384F879304BE0002D00F0DC
S31500006014A28016F8013B013D8DF80730EDB23A78BF
S315000060249DF807300D2A3B7001D10A2BE0D00D2BC9
S315000060340CD0A3F10A025142514122788846042A1F
S31500006044D6D8DFE802F0051D263C31000121F4E72D
S3150000605421B1FFF7A3FE4FF00108C9E7202B63D057
S31500006064222B07D10223237094F87820642A5DD169
S315000060740623C8E77B2B01D10323F4E70123F2E7C8
S3150000608409B9202BF0D194F87730112B3FD1032393
S31500006094B9E7222BF7D00029E6D005234FF00108F3
S315000060A484F8793004232370B8F1000FA0D094F853
S315000060B4790008B1FFF724FEFFF798FC98E77D2BDB
S315000060C494F87A0003D1FF28DDD005239BE7602BE3
S315000060D413D8402B13D8392B8CBF002230229A1A9E
S315000060E4D2B20F2A10D8FF280BD0FF2302EB0012DE
S315000060F48DF8072084F87A30B6E75722EFE737227F
S31500006104EDE784F87A2073E7202BDED170E70133BC
S31500006114DBB294F8782084F87730234483F865203A
S3150000612400232370002994D1884661E72378012B44
S3150000613409D19DF80730A3F1410119299CBF2033E9
S31500006144DBB28DF807309DF80710A3180132597099
S3150000615484F878204CE7404602B0BDE8F08100BFE1
S3150000616448260020C526002049BA89B24840C0F313
S3150000617403114140080380B24840C3B280EA431089
S31500006184704728F0EFB870477047704770477047FC
S31500006194704770477047704770477047704770473D
S315000061A4002070477047704700207047704770475B
S315000061B400207047704770477047704770477047B4
S315000061C4704770471FB501230022009306210DF185
S315000061D40F0316F093FD20B99DF80F3023B101F09B
S315000061E48DFF05B05DF804FB01F09CFFF9E70000A4
S315000061F430B50024144D85B02C7015F077FB0228B9
S3150000620417D100900DF10E0322460321012016F04A
S3150000621475FDBDF80E0048B1204601F097FF4FF416
S315000062247A6128462BF054FE05B030BD01F066FFB6
S31500006234FAE70FF089FD054B0090054A0549012050
S3150000624417F0CAFFF0E700BFD4460020AC430400B1
S31500006254882104008D21040008B515F047FB0228A7
S315000062640CD10022064B01201A7006F0C5F9BDE8D0
S31500006274084002460349012017F0AEBF08BD00BF1F
S31500006284CC460020E321040091281FB510D100203C
S3150000629401F048FF68461CF03DFB009B684643F04E
S315000062A4810300931CF040FB002005B05DF804FB5D
S315000062B49028F9D1002001F021FF68461CF02AFB42
S315000062C4009B684623F0010343F0800300931CF00F
S315000062D42BFB02482BF0F0FDE6E700BFCC4600207E
S315000062E401482BF0E9BD00BFD446002013B504468F
S315000062F400900D4B0D4A0E49012017F06DFF8CB12D
S315000063041AF014FF024618B10A49012017F064FF77
S3150000631400200EF0C5FF084B0090084A04490120EE
S3150000632417F05AFF02B010BD6B85040088210400E3
S315000063348D210400B2210400AC430400DE210400D4
S31500006344002307B5044A00930449054B012017F0BE
S3150000635443FF03B05DF804FBA12104008D21040072
S315000063646B850400FFF72EBF09B9FFF72BBF7047F3
S3150000637438B521B9BDE8384011482BF09DBD012937
S3150000638410D102280ED10F4C00202578012D0AD1F8
S3150000639401F0C8FE4FF6FF72FF231146002009F0F4
S315000063A4E1F9257038BD01F0A9FE4FF6FF72FF230F
S315000063B41146092009F0D6F900232370F2E700BF3D
S315000063C4CC460020CE2600202DE9F0470024204D9F
S315000063D4DFF89C90DFF89CA05FFA84F840462BF027
S315000063E463FBFF2806460CD122461A49287802F098
S315000063F471FD2878013413F0A5FB142CECD1BDE80B
S31500006404F087154B47B213EA270338BF534659F8AA
S3150000641424201249287802F05DFD002FE9DA14B130
S31500006424B8F1030F08D10E4B16F0010F0D49287869
S3150000643418BF194602F04EFD0A2CDAD10A4B16F0A3
S31500006444010F0A49287818BF194602F043FDD0E720
S3150000645429230020952204005D5C0400BD2204006B
S31500006464582204006E220400802204008A220400BA
S3150000647404220400A8A504008842F0B54FEA92035A
S315000064841AD804460D469BB29E0087190437043475
S31500006494BC4205F104053AD1C3EB8333314402EB24
S315000064A48303013E304411FA83F3994220D011F854
S315000064B4012B00F8012FF8E7541E204421440D4611
S315000064C404469BB2A0EB8306043E043CB442A5F109
S315000064D404050ED16FF003045C43C3EB833302EB74
S315000064E4830321449BB201342044CB1A994209D137
S315000064F4F0BD2F792771EF78E770AF78A7706F78C2
S315000065046770E2E711F8012900F8012DEEE715F8A6
S3150000651404CC04F804CC15F803CC04F803CC15F821
S3150000652402CC04F802CC15F801CC04F801CCAEE791
S315000065340244904200D1704700F8011BF9E710B5F8
S31500006544013801390AB9104606E010F8014F11F86E
S31500006554013F9C4201D0E01A10BD013A92B2F1E724
S3150000656482B2074B4AB1000C1A8008BF4FF6CE22FE
S31500006574044B14BF18801A8070474BF6EF62F2E79B
S31500006584501D0020521D0020094B1888020448BFE4
S3150000659480F0620042001A80064A1388190444BF38
S315000065A483F4805383F00B035900118058407047DD
S315000065B4501D0020521D00200022034B1870034B6F
S315000065C41970034B1A707047D0260020CF2600207E
S315000065D4D12600202DE9F04F234E85B033780746A7
S315000065E48846002B3DD04FF6FB73204D98422C78FD
S315000065F403D952211E4801F01DF91E4B4FF0000B22
S315000066049A4632785FFA8BF94A45187811D9484484
S3150000661402A9C0B2019334F04FF8082241460DEBAB
S315000066240200FFF78CFF0BF1010B019B0028E8D158
S315000066344C462B78A34207D1631C3278DBB29A42CC
S315000066442B7004BF00232B709AF8003041461C447B
S31500006654E4B2204634F088F918B93946204633F0B6
S31500006664F9FF05B0BDE8F08FCF260020D126002023
S31500006674B2230400D0260020024B187800F07F00D5
S31500006684704700BFD2260020034B18780130C0B2F1
S31500006694187000F07F007047D22600201FB5030A49
S315000066A48DF80E300323009303AB8DF80D0000F034
S315000066B4BFF905B05DF804FB1FB58DF80F10042172
S315000066C4030A8DF80E30009103AB8DF80D0000F02F
S315000066D4AFF905B05DF804FB2DE9F043994689B09E
S315000066E4BDF840509DF84460074688460DF1090000
S315000066F411460822BDF84C40FFF7BEFE8DF8125035
S31500006704012E4FEA15258DF811908DF813508DF84A
S31500006714146017D0032E1CD1082212990DF115000E
S31500006724FFF7AAFE9DF850308DF81D30162300930E
S31500006734BDF8542002AB4146384600F079F909B059
S31500006744BDE8F0838DF81540240A8DF816400F2312
S31500006754EDE70120F3E71FB50C46194602238DF831
S315000067640D2000930A4603AB0146204600F060F96B
S3150000677404B010BD70B586B0044616460DF10D0082
S3150000678408221D46FFF778FE0A232A460093342181
S3150000679403AB20468DF8156000F04AF906B070BDCB
S315000067A430B5002485B0ADF80A20021D92B2012A44
S315000067B41D46ADF80840ADF80610ADF8044003D9FF
S315000067C44FF6FF72904207D1064A2B46127801A96A
S315000067D432F0BEF805B030BD014601AA204632F0BB
S315000067E47DF9F7E7541D00202DE9F74F9846FF2A57
S315000067F416BF474B00241B680E4618BF9C5C814697
S3150000680418BF6408B8F1FF0F16BF414B00271B6879
S3150000681415461CBF13F808707F08FFF735FF4FEACB
S3150000682419238DF800008DF803600621360A6846A0
S315000068348DF804608DF801908DF802308DF80540CE
S315000068442BF0BCFEFF28064604D11824204603B0CC
S31500006854BDE8F08F4FEA440B0BF1070A0AEB470138
S31500006864C9B22BF05FFE0028EFD10446A3451BD125
S315000068740BF106013A4601F0FE0130465FFA8AF44E
S315000068842BF017FF4FF0000A5FFA8AF5AF4223D8C0
S315000068943346BDF8302006214846FFF781FF0446FB
S315000068A430462BF02DFDD1E7214628462BF0FCFE81
S315000068B4A11D0246C9B230462BF0FBFE611CC9B2CB
S315000068C428462BF0F1FEE11D0246C9B230460234D9
S315000068D42BF0EFFEE4B2C9E76D00EDB2294640465F
S315000068E42BF0E2FE2146024630462BF0E2FE691CFE
S315000068F4C9B240462BF0D8FE611C0246C9B23046E6
S3150000690402342BF0D6FE0AF1010AE4B2BCE700BF5A
S31500006914EC1C00202DE9F04188B00F4602A906467A
S3150000692415F0B2F800287CD0FFF7AEFE8DF8100003
S315000069342BF060FA8DF811002BF05CFA000A8DF842
S315000069441200082239490DF11300FFF795FDBDF831
S3150000695408300F218DF81C301B0A8DF81D309DF868
S315000069640D3004A88DF81B608DF81E302BF026FE22
S31500006974FF28044657D04FF000089DF80D305FFA03
S3150000698488F2934208F101081DD801220DF10E0187
S3150000699420462BF055FE4FF000089DF80E305FFAA6
S315000069A488F2934208F1010824D823463A46202166
S315000069B40020FFF7F5FE054620462BF0A1FC2846ED
S315000069C408B0BDE8F0810021304615F089F8054687
S315000069D48DF807000DF10701012220462BF030FE49
S315000069E42D0A01220DF1070120468DF807502BF0E0
S315000069F427FEC2E70121304615F072F805468DF8E8
S31500006A0407000DF10701012220462BF019FE2D0A7D
S31500006A1401220DF1070120468DF807502BF010FED8
S31500006A24BBE7A325CBE71825C9E700BF855D002092
S31500006A34F8B51C460E4617460546FFF725FE9DF893
S31500006A441810207020462BF0B9FDFF2804460BD001
S31500006A5403463A4628463146FFF7A2FE0546204637
S31500006A642BF04EFC2846F8BD1825FBE708B5FFF7C2
S31500006A7437FC18F07DFC0EF009FDBDE8084013F064
S31500006A84B3BD08B5FEF739FF18F0A6FCBDE808400B
S31500006A940CF05ABF7047FEF786BFFEF78ABF2DE992
S31500006AA4F743BDF82840BDF82C500646CDE900450D
S31500006AB40F469046994606F09FFB60B9CDE900451E
S31500006AC44B464246394630460CF0B0FA00F0010017
S31500006AD403B0BDE8F0830120F8E738B504460D4657
S31500006AE4FEF781FF294620460EF0D2FC29462046B1
S31500006AF4BDE8384013F0D2BFFEF75DBFFEF767BFAF
S31500006B0440220321012019F029B90122032110464C
S31500006B1419F024B900220321012019F01FB9022219
S31500006B240321012019F01AB901220021092019F0C4
S31500006B3415B900002DE9F84F80460D4614469946CE
S31500006B44164E06F1010A0DB9BDE8F88F102D4FF067
S31500006B540D02494650462F4628BF1027FFF78CFCE6
S31500006B640123337000230D48F473B37333F094FF99
S31500006B74424601340A495FFA87FBE4B212F8013B44
S31500006B8411F8010F434002F8013CA2EB0803DBB203
S31500006B945B45F3D3ED1BADB29046D4E7D726002070
S31500006BA4D62600202DE9F04F4FF00209364D85B068
S31500006BB403930F9B174601900D220E460146681C4F
S31500006BC4BDF838800293FFF757FC49234C46AA4682
S31500006BD42B7028464FEA1823AB7385F80F8033F0E1
S31500006BE45BFF2B7883EA17232B706B787B406B70E3
S31500006BF44FF0000B21E0C4F1100CA7EB0B031FFAB6
S31500006C048CFC9BB2634528BF63463046A11B00EB50
S31500006C14010C5FFA8CF2A0EB060C1FFA8CFC9C4567
S31500006C241BD31C44E4B29B44102C1E441FFA8BFB5A
S31500006C3403D1284633F030FF0024BB45DBD314B11F
S31500006C44504633F029FFB9F1010F4FF00004039EBB
S31500006C5447460BD04FF00109CAE710F801CB1AF8E2
S31500006C6402E08CEA0E0C0AF802C0D0E7029804226D
S31500006C740549FFF701FC22460421019B029805B051
S31500006C84BDE8F04FFFF756BFD7260020F7B5099F9A
S31500006C94BDF820400646CDE900471D46FFF782FFB2
S31500006CA42CB13346012221462846FFF743FF002034
S31500006CB403B0F0BD2DE9F7431E46054688469146C6
S31500006CC4BDF828700D4C0346394630460122FFF7BD
S31500006CD431FF33464A4641462846CDE90074FFF75C
S31500006CE461FF042221460B98FFF729FC002814BFF4
S31500006CF47E20002003B0BDE8F08300BFD326002029
S31500006D042DE9F3410C4615461E468046084F991850
S31500006D14214438460422FFF7AFFBCDE90067631927
S31500006D242A4621464046FFF7C5FF02B0BDE8F0817A
S31500006D34E726002000207047002070477047704700
S31500006D44F7B50024094E0A4F0A4D56F8243003B904
S31500006D543B6835F814200849009201202246013484
S31500006D6417F03AFA292CF0D103B0F0BD581D0020D3
S31500006D74001E0020504700201344040008B5FFF706
S31500006D84DFFFBDE8084000F0EFB8000007B50020BB
S31500006D94FEF70AFFC2B2282A0DD8084B53F8223050
S31500006DA40BB9074B1B680749012031F812100091F3
S31500006DB4054917F011FA03B05DF804FB581D0020CD
S31500006DC4001E00205047002013440400FFF7B8BFFC
S31500006DD47047000038B50020FEF7E6FE04460120A1
S31500006DE4FEF7E2FE05460549012017F0F5F9A9B2BA
S31500006DF4E0B2BDE8384000F0CFB800BF1E4404003E
S31500006E04F7B50024094E0A4F0A4D56F8243003B943
S31500006E143B6835F8142008490092012022460134C3
S31500006E2417F0DAF9292CF0D103B0F0BD581D002073
S31500006E34001E0020FE4600201344040073B502AB76
S31500006E4403E906000446019D2AF01EFD0646204677
S31500006E542AF028FD9DF800008EB1202C0FD82B783F
S31500006E64012B36D84FF6FF75384903EB43132344F9
S31500006E7431F81320AA4202D0013221F813204FF62A
S31500006E84FF71334B334A33F8145032F814608D4291
S31500006E941CBF691C23F8141004F0FD01092930D124
S31500006EA4998A928A0144914235DA998233F81430E8
S31500006EB4B34204D3B54202D22046FEF725FD00258F
S31500006EC4254BEA5CA24228D00135112DF9D102B036
S31500006ED470BD022BD3D14FF6FF714FF6FF751B4BD6
S31500006EE433F814208A421CBF013223F8142004F11B
S31500006EF4210133F81120AA421CBF013223F81120C4
S31500006F04BDE71D2CD2D1598F0144508F814201DA3D
S31500006F145987CBE7928A9A82C8E726F0CAFC0F4BB8
S31500006F2404461B78834203D8E0210D4800F082FC16
S31500006F344FF6FF710B4A04EB04142C4432F8143058
S31500006F448B42C4D0013322F81430C0E7A247002094
S31500006F5450470020FE46002021470400351D00202E
S31500006F6406470400DC460020522200210148FFF7B0
S31500006F74DFBA00BF504700205222FF210148FFF725
S31500006F84D7BA00BFFE46002008B5FFF7EDFFBDE8FF
S31500006F940840FFF7F1BF0000014B23F810107047BB
S31500006FA4FE460020032310B50F4C1022C4E9043317
S31500006FB40E4B0F49E3610023A16121660D49E01DD3
S31500006FC4C4E919120C49A3626362E3622367E366A8
S31500006FD4636722623AF05CFF084920463AF058FF9C
S31500006FE42023A37110BD00BF004C0020FB26002007
S31500006FF432470400EB2600203B4704003F470400C9
S315000070042DE9F84F1F4B16461A7881468A4698464C
S315000070140AB9FFF7C7FF182707FB09873D6FD7F89B
S315000070246CB05D452BD9BC6E796E641BB44228BF27
S3150000703434462944504622463AF017FFBB6E25448F
S31500007044AB4208BF0025A244361BABEB050B5E45DD
S3150000705428BF5E4656B1182303FB0983596E324690
S31500007064294450463AF001FF3444354424B11823E8
S3150000707403FB0988C8F870502046BDE8F88F002441
S31500007084E3E700BF004C0020F8B504460E46174659
S3150000709404F0DDF83A46054631462046FFF7B0FFD0
S315000070A40446284604F0D9F82046F8BD2DE9F843ED
S315000070B4124D1E462B788146884617460BB9FFF7B4
S315000070C471FF04F0C4F800244FF0180C69690CFB36
S315000070D404535A6E2AB10134A142F8DC4FF0FF344E
S315000070E407E0A142FADDC3E918989F661A67DA66D3
S315000070F45E6704F0B2F82046BDE8F883004C002031
S31500007104FFF750BF70B54FF060441A4B00261A685B
S31500007114194D42F001021A60DA680C2042F08072BE
S31500007124DA60164BC4F8B03F0223C4F8006EC4F804
S31500007134806EC5F8F03003F09BFD114B00F5D520A9
S3150000714400F2FC40B0FBF3F00E4A0F4B0138286105
S31500007154C4F8406E1A600D4BC4F8803E4FF4807339
S31500007164C5F80433D4F8003E43F48073C4F8003EF3
S3150000717470BD00BFF0ED00E0000004E055CEACC5E4
S31500007184F8590D00FF030040001000E00D00010057
S3150000719410B501240E4B00201C6004F0F5F82346BC
S315000071A404220321002004F037F920461CF00CFDCC
S315000071B4FFF7A8FF1CF009FDFFF7A2FF23464022B4
S315000071C404490548FFF772FF044B1860C00F10BD51
S315000071D444D403400B27002046470400041E002025
S315000071E4024B1868003018BF01207047F0ED00E02C
S315000071F4D123054A037013784170090A8170591C1A
S31500007204C3701170042070474B2700202DE9F74FF7
S31500007214354E074633681C5C032C63D9DFF8CC80F3
S3150000722425F05DFF4FF6FF7A0025C1460534E4B22A
S315000072340190D8F800204AB1AC4207D925F04FFF97
S31500007244019BC01A80B2B0F5FA7F05D9601B18BF3E
S31500007254012003B0BDE8F08F002D3DD0012D1DD1D6
S315000072644FF0020B3268D55D4FF06042D2F8801EB3
S31500007274CB0711D51146D9F80C0040F08070C9F837
S315000072840C00D1F8000E40F48070C1F8000E086AB4
S315000072940028F0D082F820505D46CAE7E21E05F1C8
S315000072A4010B95425FFA8BFB02D15FFA8AF5DBE7A5
S315000072B4A21E954202D1CAF30725D5E7621E95425E
S315000072C40ED0A91EC9B238462BF0EEF95146054632
S315000072D4FEF74AFF8246C7E75B254FF0010BC3E77B
S315000072E45D25C1E70120B4E7EC1C0020F0ED00E0C9
S315000072F410B50B4B90B0402269461868FFF7C4FEE0
S3150000730458B1C1B268462BF059F904460146122019
S315000073141AF06AFE20462AF0F3FF10B010BD00BF33
S31500007324041E002000F0F4B810B5002090B0FEF75B
S315000073343BFC40226946044600F02CFA034630B171
S3150000734422460649012016F047FF10B010BD01225F
S315000073546946082016F0D2FEF7E700BF5647040038
S3150000736410B500F093F8002814BF79226E22144950
S31500007374012016F031FF00F089F8F8B100F050FA58
S31500007384002814BF79226E220E49012016F024FF2C
S3150000739402220D49012016F01FFF0C4B0C491C1F3D
S315000073A453F8042C012016F017FF04F11003E268C9
S315000073B407490120BDE8104016F00EBF3F22E3E75F
S315000073C4C4480400DB480400EB480400AC4C00202D
S315000073D40A49040070B500F07FF804461F490120ED
S315000073E416F0FAFE2CB9BDE870401D49012016F0CE
S315000073F4F3BE00F079F8054622691A490120268869
S3150000740416F0EAFE62881849012016F0E5FE1749CF
S31500007414A288012016F0E0FE6388E28813F0100FBC
S3150000742414BF13491349012016F0D6FEA268124967
S31500007434012016F0D1FEE2681049012016F0CCFEB8
S315000074440F4A104B1049B6F5817F28BF1346012019
S315000074542A46BDE8704016F0BFBE00BFA047040030
S31500007464AD470400CE470400EC4704000D48040071
S315000074742A48040047480400654804008348040079
S315000074848E47040098470400A1480400034B18786B
S31500007494012894BF00200120704700BF4C2700201C
S315000074A438B50446044D2878A04203D02146FEF799
S315000074B42CFA2C7038BD00BF4C270020054B1B78D6
S315000074C420B1012B04D80220FFF7EABF012BFBD819
S315000074D4704700BF4C27002008B500F019F8BDE836
S315000074E4084004F0D1BC000010B5084C237853B909
S315000074F4FFF7F2FF0123237028B10388B3F5817FD8
S3150000750424BF037D2370207810BD00BF4D270020C3
S3150000751438B5164B1B78012B27D804F093FC144C72
S3150000752402461449012016F057FE0120FFF7C6FF54
S315000075342578FF2D19D104F0A7FCA8B14388182299
S31500007544C3F3400329460C482370FEF7F1FF237862
S31500007554012B0AD1FFF7C8FF042806D9BDE8384035
S31500007564D921064800F066B9207038BD4C270020A2
S31500007574081E00202D490400A84C00203F490400A1
S31500007584FFF7C6BF2DE9F04F4FF0FF33002687B053
S31500007594039307468A461546CDE904668DF81030EE
S315000075A4FFF7B6FFFFF7A0FF5B4B80461B78012B66
S315000075B41AD1012818D9B7FBF0F300FB13739BB15A
S315000075C4564C2268511C03D0237A13449F4237D069
S315000075D4E268531C03D0237D13449F422FD04FF4FB
S315000075E49D714F4800F026F94B4C2278012A09D1A7
S315000075F4B7FBF8F308FB137323B140F26311484851
S3150000760400F018F92378012B12D1EB19B3FBF8F427
S3150000761408FB143464B1A6B2291B1B1B3246514421
S3150000762404A8AD1B0393ADB2FEF726FF8DF81440F4
S31500007634002D4BD1039B01335AD1002654E0012679
S315000076440C2303FB0643187A32B2A8EB0009530055
S315000076545FFA89F91344A9454FEA830328BF5FFA01
S3150000766485F903F1040B009358441FFA89F31A466B
S31500007674514620440193FEF7FFFE019BED1A0C23AD
S315000076845E43A1190A7AADB24A44D2B242450A729D
S3150000769418D103200193FFF703FF1FFA88F204EBC6
S315000076A40B01A05904F078FC06460220FFF7F8FE09
S315000076B4019BFF211A46009B23441846FEF738FF18
S315000076C496B9CA44002DB8D04F448DE70320FFF77E
S315000076D4E7FE2A465146384604F05EFC064602207A
S315000076E4FFF7DEFE002EA5D0304607B0BDE8F08FCA
S315000076F40A48036801330BD0C36801330AD1012356
S315000077040C220DEB020102FB0300FEF7B5FE94E723
S315000077140023F5E70126E7E7081E0020A84C002011
S315000077243F49040038B5184B1B78012B28D1174C58
S31500007734FFF7EEFE236801330FD00320FFF7B0FEF8
S315000077442568FFF7D1FE211D82B2284604F024FCE9
S3150000775405460220FFF7A4FE9DB9E36801330FD066
S315000077640320FFF79DFEE468FFF7BEFE084982B2D8
S31500007774204604F011FC05460220FFF791FE05B9E8
S315000077840025284638BD00BF081E0020A84C00204E
S31500007794B84C002070B504460D461646FFF7B8FEF1
S315000077A40420FFF77DFE32462946204604F003FCFA
S315000077B404460220FFF774FE204670BDF8B5044661
S315000077C40E46FFF7A5FE0520FFF76AFE3146204662
S315000077D404F000FC104D07460220FFF761FE2B68FB
S315000077E4591C09D09C4207D8A219934204D20C22F0
S315000077F4FF212846FEF79CFEEB685A1C09D0A342DB
S3150000780407D33444A34204D20C22FF210348FEF7D3
S315000078148FFE3846F8BD00BFA84C0020B44C0020AB
S3150000782408B5FFF775FEBDE8084004F0E2BB42DE8A
S315000078347047000038B504460D4600F0F9FD03F024
S31500007844FEFC294620461AF09BFB2B462246054998
S31500007854012012F07DF929462046BDE83840FFF79D
S31500007864E6BF00BF524904006D4B2DE9F0415A684A
S315000078746C4CA2655A6AE2656B4AD2F8001221661C
S31500007884D2F8042262669A6AA266DA6AE2661A6B19
S3150000789422675A6B6267A26BDB6B12F0040FA36755
S315000078A4D4E90F5318BF1D4625F008FC0022854273
S315000078B40346606522655DD35C4A95425AD8AA6937
S315000078C46264E969A164B4F85810C1F30801062991
S315000078D454D157498A4251D356498A424ED21188C5
S315000078E44DF64262914249D140F201706268C4F891
S315000078F49420A268C4F898204F4A5049934238BF4E
S3150000790413460A468B423CD3D31AE3640023C4E9E4
S315000079141F33C4E92133C4E92333484E444FDFF807
S3150000792414C1AE4233D8D4E91FC7D4E92165D4E9DA
S3150000793423124FF0000E013BDBB2FF2B42D1BEF106
S31500007944000F05D0C4E91FC7C4E92165C4E92312A1
S31500007954B4F85830C3F30803052B57D03CD8032B8F
S3150000796447D0042B58D040F60722013B4B2B98BF37
S31500007974104640E000221D46C4E911224FF420605F
S31500007984BAE71E68B6F1CD3FBED10433BAE756F85E
S31500007994042DBA42C5D36245C3D2D107C1D500214D
S315000079A404EB010EDEF87CE09645BAD004311829C2
S315000079B4F6D10BB9052301E0013BDBB204EB8301ED
S315000079C4CA67AEE7E0464FF0010EBC4637462E4680
S315000079D40D4611464246AEE70C2B1AD03B2B0CD073
S315000079E4062BC0D140F60423B0F5206F08BF184615
S315000079F401E040F60120BDE8F081114B9B6913F0CC
S31500007A04020F40F2025318BF1846F4E740F603206B
S31500007A14F1E740F60520EEE740F60220EBE700BF6B
S31500007A2400ED00E00000002000E100E0401C002022
S31500007A344C430000A81E04009C000020601C00208B
S31500007A440080014A022804D003280CBF012002202A
S31500007A5470470020704700004FF480732DE9F0430F
S31500007A6485B0ADF80C30002401F0E2FC0127DFF804
S31500007A744480DFF8449003ABE35C012218F83360DA
S31500007A8408EBC3035D6830460023294603F0C4FCB3
S31500007A944946E8B201F0DAFCCDE9007701232A462B
S31500007AA42946304603F072FC14B105B0BDE8F083F4
S31500007AB40124E0E768490400417B000008B5FFF7AC
S31500007AC4C1FF022816BF024B0020185C08BD00BF88
S31500007AD44E27002008B5FFF7B5FF02281CBF014B4F
S31500007AE4195408BD4E27002008B5FFF7ABFF02283E
S31500007AF405D0034A135CB3FA83F35B09135408BD38
S31500007B044E27002008B5FFF79DFF02280FD030212D
S31500007B14084A12F8303002EBC0025943064B50684B
S31500007B245B5823FA00F0C04300F0010008BD0020B2
S31500007B34FCE700BF6849040014C0034070B504465E
S31500007B440026FFF7DFFF054601E000261D46204616
S31500007B54FFF7D8FFA8420346F7D10136052EF2D126
S31500007B642046FFF7ABFFA8420BD029462046FFF775
S31500007B74B1FF2046FFF7A2FF0146204613F008FE98
S31500007B8470BD2046FFF7B0FF2046FFF797FF01467A
S31500007B94204613F0FDFD2046FFF7A6FFE9E70000A7
S31500007BA410B503F06BFD044603F060FD00220121CD
S31500007BB401FA02F3234014D01B4B33F812301B4A4C
S31500007BC4062B13D040F207218B420DD118491948D0
S31500007BD40C68844208D14CF23C334B800B881380EA
S31500007BE412E00132102AE3D1104AF8E74FF20F01EE
S31500007BF40F4B5888884214D11988B1F5406F10D2BA
S31500007C0411804CF23C325A80084B1A8840F20173B8
S31500007C149A4201BF084B094AD2E90001C3E90001AF
S31500007C2410BD4FF4C061EBE77849040058270020E3
S31500007C340000002007020FF05027002094000020C7
S31500007C44014B1888000A704758270020014B1888F2
S31500007C54704700BF582700202DE9F04F4D4C0546CC
S31500007C64A36BD4F850B05A0747BF0027B846D4F8D8
S31500007C744CB0D4F85480D4F840A05DBF464FD4F835
S31500007C843CA0DFF83C91DFF83C9113F0080F434B1E
S31500007C94434A18BF1A46B7EB08061FBF6421730888
S31500007CA401FB0B33B3FBF6F387B01CBF9BB2059302
S31500007CB43C494B46CDE9017ACDF8008008BF0596CC
S31500007CC401F008F9B3B2CDE900931FFA8BF2059BD4
S31500007CD43549284601F0FEF8A36B5B070AD49C3E9F
S31500007CE45E4507D1626D314B9A4203D2304928462C
S31500007CF401F0F0F8BA4501D8C24504D24A462D49E6
S31500007D04284601F0E7F8284611F01CFF236E0BB94C
S31500007D14636EBBB32849284601F0C7F8002601273D
S31500007D24DFF8A480DFF8A490226E07FA06F3134264
S31500007D3407D058F8262013781BB14946284601F087
S31500007D44B4F80136202EEFD100260127DFF878801B
S31500007D54DFF87890626E07FA06F3134209D008EB4F
S31500007D648603D3F8802013781BB14946284601F0D0
S31500007D749CF801361D2EEDD1284607B0BDE8F04F1C
S31500007D8401F0A2B828460D4907B0BDE8F04F01F04E
S31500007D94A1B800BF00000020601C00207F4C040036
S31500007DA4864C04008E4C0400BC4C04009C0000204D
S31500007DB4F54C0400214D04003F4D04006E4D0400B3
S31500007DC47A4C0400A68D0400844D0400E8470400A0
S31500007DD42DE9F8430446FFF739FF40F6012398429C
S31500007DE439D010D840F2025398421DD040F20173A4
S31500007DF4984224D040F20153984213D16549204653
S31500007E0401F068F822E040F6032398426CD03DD393
S31500007E1440F60423984200F09C8040F605239842DD
S31500007E2400F0B580BDE8F8835B49204601F052F8BE
S31500007E345A4B5B495A6C204601F04CF806E0574A07
S31500007E445849D2E92523204601F044F82046BDE8E6
S31500007E54F84311F077BE514D5349204601F03AF8E4
S31500007E6495F86C309F0703D55049204601F032F847
S31500007E7495F86F305E0603D54D49204601F02AF881
S31500007E8495F96F30002BE1DA4A49B8E7434D4A4980
S31500007E94204601F01FF895F86830980704D06A6CFC
S31500007EA43F49204601F016F895F96830002B04DAAC
S31500007EB46A6F4249204601F00DF800260127DFF8D3
S31500007EC40881DFF81491AA6E07FA06F3134207D065
S31500007ED458F8262013781BB14946204600F0FAFFCD
S31500007EE40136082EEFD1B1E72C4D3549204600F076
S31500007EF4F1FF2B496A6C204600F0ECFF95F86930D7
S31500007F04590703D52F49204600F0E4FF95F9693057
S31500007F14002B04DA6A6F2949204600F0DBFF0826A5
S31500007F24294FDFF8B480AB6EF340DA0707D557F86C
S31500007F34262013781BB14146204600F0CBFF0136BC
S31500007F44102EF0D195F86830002B7FF47FAF1F49CF
S31500007F5455E7124D1E49204600F0BCFF6A6C1049D5
S31500007F64204600F0B7FF1026174FDFF86C80AB6E83
S31500007F74F340DB0707D557F8262013781BB1414693
S31500007F84204600F0A7FF01361A2EF0D15EE711490C
S31500007F944BE700BF094A0400464A040000000020DB
S31500007FA4764A04008F4A0400A94A0400C14A040020
S31500007FB4FB4A04002E4B04006A4B04008F4B04005A
S31500007FC4B34B0400CA4B040098490400104C040047
S31500007FD4404C0400594C0400AB4B04002DE9F84F07
S31500007FE406460025154C164FDFF85C80DFF85CA0CA
S31500007FF423785FFA85FB0BB9BDE8F88F57F8043B85
S3150000800422461049304600F050FF227804F1010957
S3150000801482B9627882B10BF0030103290CBF414691
S315000080245146304600F041FF304611F08BFD0135D4
S315000080344C46DDE74C46E8E74146F2E7784E040055
S3150000804404000020004A0400A220040089930400CE
S3150000805400F00CB800F00AB800F008B800F006B852
S3150000806400F004B800F002B800F000B872B61EF0D2
S31500008074080F09D01EF0040F0DD0DFF850E0AEE86B
S31500008084FF1F6FF002000CE0DFF840E0AEE8FF1FD0
S315000080946FF00E0005E0DFF834E0AEE8FF1F6FF086
S315000080A406006946EFF309828EE80700864608480B
S315000080B4084C854501D3A54501D384F30888FFF709
S315000080C4D3FB84F3088824F0D5FF000004000020C5
S315000080D440130020601C0020FFF7C6BF002310B524
S315000080E419460422012003F097F9BDE81040012146
S315000080F400230422084603F08FB90000084A12F848
S31500008104301002EBC002536801229A4030234B43DD
S3150000811441F2100103F1804303F570335A5070475E
S315000081248C550400084A12F8301002EBC00253685A
S3150000813401229A4030234B4342F2100103F180435B
S3150000814403F570335A5070478C550400084A12F8E8
S31500008154301002EBC002536801229A4030234B438D
S3150000816443F2100103F1804303F570335A5070470C
S315000081748C5504007047000000F07E63B3F17E6FF7
S3150000818470B505460E46144616D10CF03DFE18B1E0
S315000081949A210D48FFF74EFB22463146C5F30B00E4
S315000081A403F028FB04460CF03BFE5CB19D21BDE8C0
S315000081B470400548FFF73EBB520824F0F9FE08B1AB
S315000081C48F21F4E770BD00BFAE55040037B57F2A92
S315000081D414BF154600254BF234629142044619D168
S315000081E47F2241F2020168460823FFF7EFFF0822C7
S315000081F425496846FEF7A3F930B908237F2241F2E0
S31500008204F0116846FFF7E2FF082269462046FEF7AA
S3150000821433F909E041F2F01291421AD11B490138AF
S315000082248A6CC96C1D1F0BB903B030BD013B9D425E
S3150000823400F8012F4FEA1222F5D1002203349A42A4
S31500008244F2D00132042A04F8011F4FEA1121F6D1B3
S31500008254EAE701F47042B2F5805F07D1C1F30B047B
S3150000826404F17E649AB203FB0541D0E701F460424F
S31500008274B2F5005FD8D1C1F30B0405499AB2214483
S3150000828403FB0511C3E700BFC35504000080E00FDC
S3150000829400E00F0070B5054616461C46DBB14BF2EE
S315000082A43463994210D1082C28BF08247F2241F256
S315000082B402012346FFF78AFFA2B207492846FEF7C2
S315000082C43EF940B941F2F011234632462846BDE84C
S315000082D47040FFF77BBF70BDC35504002DE9F7431B
S315000082E40446E0070F46154603D5DD213448FFF75B
S315000082F4A1FAE90703D5DE213148FFF79BFA04F416
S315000083047043B3F5805F3ED1C4F30B0404F17E647D
S315000083146B1E2C4A23449342264603D9E32128485C
S31500008324FFF788FADFF8989006EB050846453DD135
S31500008334A2070ED04FF6FF7337F8022B02A943EAC1
S315000083440243A01E41F8043D0422FFF715FF023440
S31500008354023DAB070ED0023D25F00103FB5A02A9EC
S315000083646FEA03436FEA1343042241F8043D60199C
S31500008374FFF702FF25B12A4639462046FFF7FCFEE1
S3150000838403B0BDE8F08304F46043B3F5005F05D1A0
S315000083940D4BC4F30B041C442646C3E7EA210848E4
S315000083A4FFF748FA6FF00F060024BBE716F8013B07
S315000083B4FF2BBBD0F4214846FFF73CFAB6E700BFD3
S315000083C4AE550400FF1FE00F00E00F00FFF740BEAC
S315000083D41FB5144A01AB10685168128903C31A8089
S315000083E401238DF804300D238DF80A3003230E4C37
S315000083F4082123208DF80B3002F078FD01A92046D0
S3150000840403F02FFC4FF40061022342F21800074ADE
S31500008414C2F884112350516041F21C02A35004B0E7
S3150000842410BD00BFCB5504000080014A00E100E006
S31500008434014803F005BC00BF0080014AA52803D10A
S315000084440021024803F0EDBB704700BF0080014ADB
S31500008454024B586800F00100704700BF0080014AD3
S31500008464024A536A002BFCD1704700BF0080014AC0
S3150000847400207047002070477047000007B572B6A9
S3150000848402F0DDFE894B8A495B6940228B6000233A
S315000084940B764B768B76F023CB760B774B778B77F5
S315000084A4CA77802281F8202081F82130E0236020D9
S315000084B481F822307F4B81F8232083F8002383F848
S315000084C4012383F8022383F8032383F8042383F820
S315000084D4052383F8062383F8072383F8082383F800
S315000084E4092383F80A2383F80B2383F80C2383F8E0
S315000084F40D2383F80E2383F80F2383F8102383F8C0
S31500008504112383F8122383F8132383F8142383F89F
S31500008514152383F8162383F8172383F8182383F87F
S31500008524192383F81A2383F81B2383F81C2383F85F
S315000085341D2383F81E2383F81F2383F8202383F83F
S315000085442103202083F8222383F8232383F824237A
S3150000855483F8252383F8262383F8272383F82823FF
S3150000856483F8292383F82A2383F82B0383F82C031F
S3150000857483F82D2383F82E2383F82F2383F83023BF
S3150000858483F8312383F8322383F8332383F834239F
S3150000859483F8352383F8362383F8372383F838237F
S315000085A483F8392383F83A2383F83B2383F83C235F
S315000085B4CB6823F4E0631B041B0C43F0BF6343F452
S315000085C40133CB604B6943F010034B614FF4E02356
S315000085D44B620BF05FF9FFF7E3FAEFF308834FF012
S315000085E4CD31354A043B93425DD2344A002192B2DE
S315000085F43348FDF79DFF62B6684603F023F9314B15
S315000086049B6DDB0318D4304A136823F4FF0323F469
S31500008614FE4343F4BC1343F4A063136052F8043CD2
S3150000862423F4704343F4404342F8043C52F8043CB8
S3150000863443F4E06342F8043C9DF80130012B0FD16A
S315000086449DF8003063B94FF000531B681F4B1B683D
S315000086541F4B1B681F4B1B681F4B1B681F4B1B685C
S315000086641F4AD2F8803043F00303C2F88030022256
S315000086744FF040231A670BF069F801F05DFA002306
S3150000868400938DF80430012368468DF8033002F018
S3150000869472FE00F027F924F02FFD12481BF09EFA13
S315000086A403B05DF804FB1960043B9CE7004000003E
S315000086B400ED00E000E100E00013002034120000A9
S315000086C4A000002000C0004034C00040004000204C
S315000086D40080002000C0002000000120004001208E
S315000086E4008000403CB1040040F2016024F0C2BCAA
S315000086F4FEF724BB08B500210B20FEF71DFBBDE8E1
S315000087040840FEF71CBB032000F078BA08B5FFF753
S3150000871497FA044B0B289ABF00B203EB8000184665
S3150000872408BD00BF1E57040008B5FFF78FFA044BB7
S31500008734C0F30F2253F82230C0B203EB800008BD09
S31500008744E856040010B5FFF77BFA0446FFF77EFAF5
S31500008754C0B228B9012C24D164F07F04E4B216E037
S31500008764072CF9D801A353F824F000BF938700001F
S315000087745D870000918700009787000097870000B7
S315000087849B8700009F870000A387000009242046DA
S3150000879410BD0224FBE70324F9E70B24F7E70624BC
S315000087A4F5E70446F3E700BF07282DE9F84F04462A
S315000087B40F462DD0082808BF022421460120FDF7C4
S315000087C413F9FFF745FE651ED5F1000848EB0508C9
S315000087D400B3012C1ED1A520FFF730FE2646EFF389
S315000087E41089012383F31088EFF3118A4FF0000BED
S315000087F48BF31188354D404611F012FC631EC5F803
S3150000880400B0042B59D8DFE803F00E4D4D51550046
S315000088140324D2E7FFF71CFE18B1FFF721FE00265A
S31500008824DDE70646DBE72A4A136923F004031361EE
S3150000883430BF284AD2F82434D2F8202413409BB2FD
S31500008844254A2B60D2F80011480102D51168490166
S3150000885406D4D2F80011880105D51268910102D513
S3150000886443F480332B601C4BD3F80021520506D504
S315000088741B685B0542BF2B6843F400332B601EB1B3
S315000088840121164803F0CDF9404611F0E9FBCFB1BA
S315000088948AF3118889F310882146BDE8F84F002031
S315000088A4FDF7A2B8012002F039FDC2E7012002F06B
S315000088B449FDBEE702F048FDBBE788210848FEF7FC
S315000088C4B9FFB6E787F31088E6E700BF6427002000
S315000088D400ED00E000C0034000E100E00080014A32
S315000088E44E57040042F22041044AD2F820341B0CAD
S315000088F41B045350024A1360704700BF00C0034074
S31500008904602700200021FFF74FBFFFF7FBBF0000E1
S315000089142DE9F04F89B01BF055F90746002840F0C1
S31500008924DD806F4E6F4D3168286822F07FF804466B
S31500008934002827D033683C46D3E900019A691268B7
S315000089449047336804A89B699B689847336802205C
S315000089549B69DB689847326805985368E7B2B3FBAE
S31500008964F0F3BB42916904F1010442D8CB680020BC
S31500008974984733689B695B6898473168286822F092
S3150000898455F804460026DFF88891002C53D1564B3F
S315000089944FEA8608F35C002B31D1A246534BF35CB5
S315000089A40193534B03EB080B019B5FFA8AF7BB4217
S315000089B4286853D84F4BF35C002B3CD04C4B019F9B
S315000089C49844FBB27E2B286835D8D8F8003003AA21
S315000089D407EB030A514602AB22F062FA48452AD055
S315000089E45146286822F0A2FA013704460028E8D046
S315000089F421E012680B6907FB00209847ABE73C4B64
S31500008A0403AA53F82670286802AB394622F048FABE
S31500008A14484507D078B9039B012B0CD03946286802
S31500008A2422F084FA344B394653F8083028681A6819
S31500008A3422F060F9044601362B2EA6D1B4FA84F34B
S31500008A442E4A5B0913702E4B9C4241D02DD8002C24
S31500008A5432D0013B9C423FD0C5242DE0DBF80030E8
S31500008A6403AA1F44394602AB22F01AFA48450AD033
S31500008A7410B10AF1010A97E7039B8BB9214B029ABD
S31500008A84F35C9A42F5D01F4B1B4A9B5D52F80820B3
S31500008A943946286822F0A0F80028EAD0044689E777
S31500008AA43946286822F042FAEDE7174B9C4211D06A
S31500008AB404339C42D0D1C1242B681B7C23B14FF4D0
S31500008AC489711248FEF7B6FE204609B0BDE8F08F5C
S31500008AD4C324F1E7C424EFE7C224EDE7C624F3E791
S31500008AE41821002014210020542704007D260400A8
S31500008AF4AC2704007F270400A8260400682700206A
S31500008B0402E000F05828040004E000F06557040071
S31500008B140BE000F02A2970B506460C4615461AD80D
S31500008B24144A127822B3144A1068144A52F82110CF
S31500008B34134A125D3AB1324622F02AF9C0B1BDE8B1
S31500008B447040FDF720BB7F2D08BF0025324629441F
S31500008B5422F08CF8F2E7FF2903D9BDE87040FFF74D
S31500008B6499BB40F24511BDE870400648FEF762BE67
S31500008B7470BD00BF6827002014210020AC27040024
S31500008B8454270400655704002A28F8B504460D4600
S31500008B94164619D81449097829B31449144F086894
S31500008BA4144951F824103C5D3CB1126822F0A2F835
S31500008BB4C8B1BDE8F840FDF7E6BA7F2D08BF002529
S31500008BC4294422F009F8F3E7FF2805D91A46314665
S31500008BD4BDE8F840FFF782BB4FF4BC71BDE8F8402E
S31500008BE40548FEF727BEF8BD68270020142100209B
S31500008BF454270400AC2704006557040008B5084B45
S31500008C041B7863B1074B002253F82010064B1868F3
S31500008C1422F0FEF818B1BDE80840FDF7B4BA08BD65
S31500008C2468270020AC2704001421002070B51646DE
S31500008C3485180AB9304470BD01F00F030A2B34BFFE
S31500008C4430243724013A2344090905F8013DD2B2F8
S31500008C54EFE70000F0B5F9B100281CDA2D23B0F1D6
S31500008C64004F137000D04042012115E0801B86425C
S31500008C74ECB205F10105F9D904B927B101274D1C58
S31500008C8430345454E9B20133092B09D130305054ED
S31500008C940131C8B2F0BD002100231F46DFF808C029
S31500008CA45CF823600025E2E7785704002DE9F04FCD
S31500008CB44FF0000B95B002AC81468A4617461D4616
S31500008CC45E46A0463B7863B902ABE41AE4B2224698
S31500008CD419465046C847002840F093803444E0B211
S31500008CE490E0252B13D0BBF1000F14D1237001346F
S31500008CF412AB9C426DD3A4EB0804E4B2224641466F
S31500008D045046C84700287CD12644F6B260E0BBF141
S31500008D14000F00D101373B78632B00F092801BD8FB
S31500008D24392B09D8302B80F09E80002BCCD0252BF4
S31500008D3451D04FF0000BDBE7582B00F08B80622BF1
S31500008D44F7D14FF0000B2B6801936B680093009BDF
S31500008D549B4543D10835ECE7702B1ED017D8642BFE
S31500008D6401D06C2BE5D16C2B05F1040B28686CD172
S31500008D747B78752B14BF0121002101D0642B00D10F
S31500008D8401372246FFF766FF04445D46D1E7752B9B
S31500008D94E9D0782B5ED0732BCBD1A4EB0804E4B2D4
S31500008DA4224602A9504605F1040B2D68C84740BB6C
S31500008DB42644F6B2C4B22B5D0130002BFAD122460A
S31500008DC429465046C847E0B95D4683462644F6B26E
S31500008DD44446013776E723700134AAE7019B20460F
S31500008DE413F80B100222FFF721FF12AB9842044638
S31500008DF40ED3A0EB0804E4B2224641465046C847C7
S31500008E0418B1002015B0BDE8F08F26444446F6B2EA
S31500008E14009B013B5B4582BF20232370013412ABC8
S31500008E249C420BD3A4EB0804E4B2224641465046C6
S31500008E34C8470028E5D126444446F6B20BF1010B97
S31500008E4485E72B6804352370C6E7752B0CBF002114
S31500008E54012196E7204602222978FFF7E7FE05F16D
S31500008E64040B044691E77A7802F0DF02582A19D1F6
S31500008E74322B07F1010B09D10422204629882F1D24
S31500008E84FFF7D4FE3D4604465F4652E7342B09D12C
S31500008E942F1D2D680422290C2046FFF7C7FE042245
S31500008EA4A9B2EDE74FF0010B22E70EB403B503AA0E
S31500008EB452F8041B019211F069F9C0B202B05DF8D0
S31500008EC404EB03B0704700000149FFF7EEBF00BF93
S31500008ED4A22004000EB433B505AA52F8041B0546B5
S31500008EE4019211F053F904462846FFF7EDFFE0B26C
S31500008EF402B0BDE8304003B0704708B511F046F93A
S31500008F04C0B208BD2DE9F04F9B46584B85B01B787F
S31500008F14064689461546109F9DF844A0DDF8508004
S31500008F24002B00F09280072A00F291800E9B002B02
S31500008F3400F08D800F9B002B00F08980129BB3F507
S31500008F44006F00F38480012801D1002F7FD0484BA5
S31500008F5403EB05131B7B002B7BD0464C1022002110
S31500008F64684638F08DFF04EB45141022B9F1000F62
S31500008F745CD14946204638F083FFA37843F01003BA
S31500008F84A370E37843F03003E370BAF1000F03D122
S31500008F94DBB243F00303E37036496A01129B885A35
S31500008FA4013B63F30E100E9B01EB020C8852CCF8C6
S31500008FB408300F9B9DF84C10CCF804309CF8033015
S31500008FC4012E61F38303CDF800B08CF8033042D14F
S31500008FD413230CF1100ECCF80C309CE80F008EE82D
S31500008FE40F006FF00301DCF81C20B9F1010F61F3E7
S31500008FF49F02CCF81C20CCF8147004D10F9BCCF83B
S315000090040470CCF81830002719492A018B1841F846
S315000090140280159A28465A609F605E732246694606
S3150000902402F08AFA384605B0BDE8F08F00212046E2
S3150000903438F026FF1023A3700323E370BAF1000F60
S31500009044AAD1DBB243F03003A5E70B48EBE70B48A4
S31500009054E9E70B48E7E7B8F1000FD4D19CF80230F2
S3150000906468F304138CF80230CDE700BFEC28002027
S315000090746C270020EC270020028000F0018000F01D
S31500009084078000F038B5104B05461B78BBB1C0B15C
S3150000909402F0DDF800230D4901EB0312147B3CB901
S315000090A42B6001231460137302F0D7F8204638BDF1
S315000090B40133082BF0D102F0D0F80548F7E705484C
S315000090C4F5E70548F3E700BFEC2800206C270020ED
S315000090D4048000F0028000F0018000F038B502F050
S315000090E4B6F8002305460A4AD1180C7B5CB910333E
S315000090F4802BF9D102F0D2F9064B28461C7002F0F7
S31500009104ACF8204638BD284602F0A7F80248F9E72D
S315000091146C270020EC280020058000F00D4B10B5CC
S315000091241B78044693B1072812D802F090F80A4B2C
S3150000913403EB04131A7B2AB100241C7302F08DF886
S31500009144204610BD02F089F80448FAE70448F8E717
S315000091540448F6E7EC2800206C270020068000F07F
S31500009164028000F0018000F0164B13B51868002346
S3150000917401908DF8043002F06AF8134B1C7824B180
S3150000918402F06BF8114802B010BD01221A7002F009
S3150000919464F80F4B1C731C7783F82C4083F83C400F
S315000091A483F84C4083F85C4083F86C4083F87C4039
S315000091B404230DEB03008DF8073002F093F92046E3
S315000091C4E1E700BF9C570400EC280020038000F070
S315000091D46C27002010B588B00E9C009207940D9C55
S315000091E4024606949DF8304005940B9C04949DF821
S315000091F4284003940024CDE9013420460B46214639
S31500009204FFF780FE08B010BD10B588B00E9C009222
S3150000921407940D9C024606949DF8304005940B9CD9
S3150000922404949DF8284003940024CDE90134204693
S315000092340B460121FFF766FE08B010BD08B50A4BC0
S315000092441B785BB107280BD8084B03EB00131B7B79
S3150000925443B1002102F036F9002008BD0448FCE7BA
S315000092640448FAE70448F8E7EC2800206C270020B5
S31500009274028000F0018000F0078000F008B50A4B78
S315000092841B785BB107280BD8084B03EB00131B7B39
S3150000929443B1012102F016F9002008BD0448FCE799
S315000092A40448FAE70448F8E7EC2800206C27002075
S315000092B4028000F0018000F0078000F008B50A4B38
S315000092C41B7853B107280AD8084B03EB00131B7B02
S315000092D43BB102F081F9002008BD0548FCE70548CA
S315000092E4FAE70548F8E700BFEC2800206C270020C1
S315000092F4028000F0018000F0078000F00D4B1B781F
S3150000930493B1072812D889B10B4B03EB00131B7BCF
S3150000931473B10A4BDA6A012303FA00F010401ABF4C
S3150000932400200B7008707047054870470548704761
S3150000933405487047EC2800206C27002000000440F4
S31500009344028000F0018000F0078000F00B4B10B59E
S315000093541B780C4663B107280CD859B1084B03EBAC
S3150000936400131B7B43B102F049F92060002010BDB5
S315000093740448FCE70448FAE70448F8E7EC28002028
S315000093846C270020028000F0018000F0078000F0C6
S315000093942DE9F843174B1F6D5B6D1F4000D5FEE7A3
S315000093A401260025144CDFF85480DFF85490374228
S315000093B417D02368C8F800609BB1A16862680131C0
S315000093C4A16028469847637B012B0AD148B909EB6B
S315000093D44513197B1A7F60F3410160F34102197347
S315000093E41A770135082D4FEA460604F11004DED13A
S315000093F4BDE8F883000004406C2700205020044098
S31500009404EC27002070B504460125084E04B970BD4A
S3150000941494FAA4F0B0FA80F005FA00F324EA0304FF
S3150000942456F82030002BF1D09847EFE7F0280020BB
S315000094344FF00072044BC3F880211A604FF080622B
S31500009444C3F880211A60704700E100E038B504468D
S315000094540D4601F0FCFE034B43F82450BDE83840AA
S3150000946401F0FBBEF0280020084BD3F82404D3F8FF
S315000094742024104042F2204220F42A5020F02A00F0
S315000094844004400C9850FFF7BDBF00BF00C0034026
S31500009494084BD3F82404D3F82024104042F2204287
S315000094A420F4AA4020F055000004000C9850FFF761
S315000094B4A9BF00BF00C00340104A30B5136841611C
S315000094C41546ABB91060836011E0091B9C684161C5
S315000094D41A467CB123465C698C42F6D9002CF4D03A
S315000094E452B19060836013B15A69511A596130BD03
S315000094F40022F0E72346F4E72860F3E7402900203A
S3150000950410B500F051FA094B094A196831B11368CC
S31500009514C41A4B69A34203D31B1B4B61106003E0BF
S31500009524C01A002310604B6110BD00BF4029002003
S3150000953434290020074B10B51B6802205C69064BD2
S315000095441B681C4400F056FA2046BDE8104000F0A3
S3150000955432BA00BF402900203429002070B59DF896
S315000095641450164605710025049A8560BDF81850F6
S315000095740446C5800260C0E903360D4629B9616117
S315000095840BB11146984796B1354601F060FE064682
S31500009594FFF7B6FF29462046FFF78EFF054B1B68EB
S315000095A4A34201D1FFF7C6FF304601F056FE002064
S315000095B470BD00BF4029002000210C4A13687BB10E
S315000095C483420AD1836879B18B6083681BB15A6977
S315000095D441690A445A610020704719469B68EEE7C0
S315000095E40028EFD0022070471360EEE740290020E0
S315000095F470B501F02CFE104D06462C78BCB90F4B05
S315000096041C600F4B1C600F4B1C7000F093F901207B
S3150000961400F0F0F900F022FA2346024640F2E73160
S31500009624094838F051FA094B186001232B7030466B
S3150000963401F013FE002070BD3029002040290020CF
S31500009644342900203C29002018FCFFFF382900207B
